{
  "_format": "hh-sol-artifact-1",
  "contractName": "Shoodh",
  "sourceName": "contracts/Shoodh.sol",
  "abi": [
    {
      "inputs": [
        {
          "internalType": "contract VerifierNFT",
          "name": "_verFT",
          "type": "address"
        },
        {
          "internalType": "contract ResearchPaper",
          "name": "_rft",
          "type": "address"
        }
      ],
      "stateMutability": "nonpayable",
      "type": "constructor"
    },
    {
      "anonymous": false,
      "inputs": [
        {
          "indexed": false,
          "internalType": "uint256",
          "name": "reqId",
          "type": "uint256"
        },
        {
          "indexed": false,
          "internalType": "uint256",
          "name": "original_id",
          "type": "uint256"
        },
        {
          "indexed": false,
          "internalType": "uint256",
          "name": "new_id",
          "type": "uint256"
        },
        {
          "indexed": true,
          "internalType": "address",
          "name": "from",
          "type": "address"
        }
      ],
      "name": "ApproveUpdate",
      "type": "event"
    },
    {
      "anonymous": false,
      "inputs": [
        {
          "indexed": true,
          "internalType": "address",
          "name": "to",
          "type": "address"
        },
        {
          "indexed": true,
          "internalType": "address",
          "name": "from",
          "type": "address"
        },
        {
          "indexed": false,
          "internalType": "uint256",
          "name": "amt",
          "type": "uint256"
        }
      ],
      "name": "Contribution",
      "type": "event"
    },
    {
      "anonymous": false,
      "inputs": [
        {
          "indexed": false,
          "internalType": "uint256",
          "name": "reqId",
          "type": "uint256"
        },
        {
          "indexed": false,
          "internalType": "uint256",
          "name": "original_id",
          "type": "uint256"
        },
        {
          "indexed": false,
          "internalType": "uint256",
          "name": "new_id",
          "type": "uint256"
        },
        {
          "indexed": true,
          "internalType": "address",
          "name": "from",
          "type": "address"
        },
        {
          "indexed": true,
          "internalType": "address",
          "name": "to",
          "type": "address"
        }
      ],
      "name": "RequestUpdate",
      "type": "event"
    },
    {
      "anonymous": false,
      "inputs": [
        {
          "indexed": false,
          "internalType": "uint256",
          "name": "id",
          "type": "uint256"
        },
        {
          "indexed": false,
          "internalType": "string",
          "name": "url",
          "type": "string"
        },
        {
          "indexed": true,
          "internalType": "address",
          "name": "author",
          "type": "address"
        }
      ],
      "name": "ResearchFormed",
      "type": "event"
    },
    {
      "inputs": [
        {
          "internalType": "uint256",
          "name": "_reqid",
          "type": "uint256"
        }
      ],
      "name": "approveRequest",
      "outputs": [],
      "stateMutability": "nonpayable",
      "type": "function"
    },
    {
      "inputs": [
        {
          "internalType": "uint256",
          "name": "_amt",
          "type": "uint256"
        },
        {
          "internalType": "address payable",
          "name": "_to",
          "type": "address"
        }
      ],
      "name": "contribute",
      "outputs": [],
      "stateMutability": "payable",
      "type": "function"
    },
    {
      "inputs": [
        {
          "internalType": "address",
          "name": "",
          "type": "address"
        },
        {
          "internalType": "address",
          "name": "",
          "type": "address"
        }
      ],
      "name": "contributions",
      "outputs": [
        {
          "internalType": "uint256",
          "name": "",
          "type": "uint256"
        }
      ],
      "stateMutability": "view",
      "type": "function"
    },
    {
      "inputs": [
        {
          "internalType": "string",
          "name": "_uri",
          "type": "string"
        },
        {
          "internalType": "uint256",
          "name": "_id_cont",
          "type": "uint256"
        },
        {
          "internalType": "uint256[]",
          "name": "_refrenced",
          "type": "uint256[]"
        }
      ],
      "name": "createResearchPaper",
      "outputs": [],
      "stateMutability": "nonpayable",
      "type": "function"
    },
    {
      "inputs": [
        {
          "internalType": "address",
          "name": "",
          "type": "address"
        }
      ],
      "name": "isreseacher",
      "outputs": [
        {
          "internalType": "bool",
          "name": "",
          "type": "bool"
        }
      ],
      "stateMutability": "view",
      "type": "function"
    },
    {
      "inputs": [
        {
          "internalType": "address",
          "name": "",
          "type": "address"
        }
      ],
      "name": "noResearch",
      "outputs": [
        {
          "internalType": "uint256",
          "name": "",
          "type": "uint256"
        }
      ],
      "stateMutability": "view",
      "type": "function"
    },
    {
      "inputs": [],
      "name": "no_of_research",
      "outputs": [
        {
          "internalType": "uint256",
          "name": "",
          "type": "uint256"
        }
      ],
      "stateMutability": "view",
      "type": "function"
    },
    {
      "inputs": [
        {
          "internalType": "uint256",
          "name": "_original_id",
          "type": "uint256"
        },
        {
          "internalType": "uint256",
          "name": "_new_id",
          "type": "uint256"
        }
      ],
      "name": "requestResearch",
      "outputs": [],
      "stateMutability": "nonpayable",
      "type": "function"
    },
    {
      "inputs": [
        {
          "internalType": "uint256",
          "name": "",
          "type": "uint256"
        }
      ],
      "name": "requestToUpdates",
      "outputs": [
        {
          "internalType": "uint256",
          "name": "reqId",
          "type": "uint256"
        },
        {
          "internalType": "uint256",
          "name": "original_id",
          "type": "uint256"
        },
        {
          "internalType": "uint256",
          "name": "new_id",
          "type": "uint256"
        },
        {
          "internalType": "address",
          "name": "from",
          "type": "address"
        },
        {
          "internalType": "address",
          "name": "to",
          "type": "address"
        },
        {
          "internalType": "enum Shoodh.StatusReq",
          "name": "status",
          "type": "uint8"
        }
      ],
      "stateMutability": "view",
      "type": "function"
    },
    {
      "inputs": [],
      "name": "researchPaper",
      "outputs": [
        {
          "internalType": "contract ResearchPaper",
          "name": "",
          "type": "address"
        }
      ],
      "stateMutability": "view",
      "type": "function"
    },
    {
      "inputs": [
        {
          "internalType": "uint256",
          "name": "",
          "type": "uint256"
        }
      ],
      "name": "researches",
      "outputs": [
        {
          "internalType": "uint256",
          "name": "id",
          "type": "uint256"
        },
        {
          "internalType": "uint256",
          "name": "no_of_verifications",
          "type": "uint256"
        },
        {
          "internalType": "uint256",
          "name": "id_cont",
          "type": "uint256"
        },
        {
          "internalType": "string",
          "name": "uri",
          "type": "string"
        },
        {
          "internalType": "address",
          "name": "author",
          "type": "address"
        }
      ],
      "stateMutability": "view",
      "type": "function"
    },
    {
      "inputs": [
        {
          "internalType": "address",
          "name": "",
          "type": "address"
        },
        {
          "internalType": "uint256",
          "name": "",
          "type": "uint256"
        }
      ],
      "name": "userResearches",
      "outputs": [
        {
          "internalType": "uint256",
          "name": "",
          "type": "uint256"
        }
      ],
      "stateMutability": "view",
      "type": "function"
    },
    {
      "inputs": [],
      "name": "verifierNFT",
      "outputs": [
        {
          "internalType": "contract VerifierNFT",
          "name": "",
          "type": "address"
        }
      ],
      "stateMutability": "view",
      "type": "function"
    },
    {
      "inputs": [
        {
          "internalType": "uint256",
          "name": "_id",
          "type": "uint256"
        },
        {
          "internalType": "uint256",
          "name": "_myid",
          "type": "uint256"
        }
      ],
      "name": "verifyResearch",
      "outputs": [],
      "stateMutability": "nonpayable",
      "type": "function"
    }
  ],
  "bytecode": "0x608060405260006008553480156200001657600080fd5b50604051620025fb380380620025fb83398181016040528101906200003c919062000188565b816000806101000a81548173ffffffffffffffffffffffffffffffffffffffff021916908373ffffffffffffffffffffffffffffffffffffffff16021790555080600160006101000a81548173ffffffffffffffffffffffffffffffffffffffff021916908373ffffffffffffffffffffffffffffffffffffffff1602179055505050620001cf565b600080fd5b600073ffffffffffffffffffffffffffffffffffffffff82169050919050565b6000620000f782620000ca565b9050919050565b60006200010b82620000ea565b9050919050565b6200011d81620000fe565b81146200012957600080fd5b50565b6000815190506200013d8162000112565b92915050565b60006200015082620000ea565b9050919050565b620001628162000143565b81146200016e57600080fd5b50565b600081519050620001828162000157565b92915050565b60008060408385031215620001a257620001a1620000c5565b5b6000620001b2858286016200012c565b9250506020620001c58582860162000171565b9150509250929050565b61241c80620001df6000396000f3fe6080604052600436106100dd5760003560e01c8063953ca3311161007f578063df93edf811610059578063df93edf8146102f0578063e7c894a41461031b578063eb94074c14610344578063ec5e2bda1461036f576100dd565b8063953ca3311461024d578063c3c049c71461028a578063d7d1bbdb146102c7576100dd565b80634975e44e116100bb5780634975e44e1461018a57806355bbd8b2146101c75780635f7d0704146101f057806360b0b0f014610231576100dd565b806329369ccf146100e25780632ee3a7a61461011f578063487d98d414610148575b600080fd5b3480156100ee57600080fd5b506101096004803603810190610104919061154e565b61039a565b60405161011691906115a7565b60405180910390f35b34801561012b57600080fd5b50610146600480360381019061014191906115ee565b6103bf565b005b34801561015457600080fd5b5061016f600480360381019061016a919061162e565b61064e565b604051610181969594939291906116e1565b60405180910390f35b34801561019657600080fd5b506101b160048036038101906101ac9190611742565b6106e7565b6040516101be91906115a7565b60405180910390f35b3480156101d357600080fd5b506101ee60048036038101906101e9919061182a565b6106ff565b005b3480156101fc57600080fd5b506102176004803603810190610212919061162e565b610a49565b60405161022895949392919061194f565b60405180910390f35b61024b600480360381019061024691906119e7565b610b27565b005b34801561025957600080fd5b50610274600480360381019061026f9190611a27565b610cb9565b60405161028191906115a7565b60405180910390f35b34801561029657600080fd5b506102b160048036038101906102ac9190611742565b610cea565b6040516102be9190611a82565b60405180910390f35b3480156102d357600080fd5b506102ee60048036038101906102e9919061162e565b610d0a565b005b3480156102fc57600080fd5b50610305610f3e565b60405161031291906115a7565b60405180910390f35b34801561032757600080fd5b50610342600480360381019061033d91906115ee565b610f44565b005b34801561035057600080fd5b50610359611371565b6040516103669190611afc565b60405180910390f35b34801561037b57600080fd5b50610384611395565b6040516103919190611b38565b60405180910390f35b6002602052816000526040600020602052806000526040600020600091509150505481565b6000821180156103d157506008548211155b610410576040517f08c379a000000000000000000000000000000000000000000000000000000000815260040161040790611b9f565b60405180910390fd5b3373ffffffffffffffffffffffffffffffffffffffff1660008054906101000a900473ffffffffffffffffffffffffffffffffffffffff1673ffffffffffffffffffffffffffffffffffffffff16636352211e836040518263ffffffff1660e01b815260040161048091906115a7565b602060405180830381865afa15801561049d573d6000803e3d6000fd5b505050506040513d601f19601f820116820180604052508101906104c19190611bd4565b73ffffffffffffffffffffffffffffffffffffffff1614610517576040517f08c379a000000000000000000000000000000000000000000000000000000000815260040161050e90611c4d565b60405180910390fd5b600015156007600084815260200190815260200160002060020160003373ffffffffffffffffffffffffffffffffffffffff1673ffffffffffffffffffffffffffffffffffffffff16815260200190815260200160002060009054906101000a900460ff161515146105be576040517f08c379a00000000000000000000000000000000000000000000000000000000081526004016105b590611cb9565b60405180910390fd5b60006007600084815260200190815260200160002090508060010160008154809291906105ea90611d08565b919050555060018160020160003373ffffffffffffffffffffffffffffffffffffffff1673ffffffffffffffffffffffffffffffffffffffff16815260200190815260200160002060006101000a81548160ff021916908315150217905550505050565b6005818154811061065e57600080fd5b90600052602060002090600502016000915090508060000154908060010154908060020154908060030160009054906101000a900473ffffffffffffffffffffffffffffffffffffffff16908060040160009054906101000a900473ffffffffffffffffffffffffffffffffffffffff16908060040160149054906101000a900460ff16905086565b60036020528060005260406000206000915090505481565b6000831015801561071257506008548311155b610751576040517f08c379a000000000000000000000000000000000000000000000000000000000815260040161074890611b9f565b60405180910390fd5b60006007600060016008546107669190611d50565b815260200190815260200160002090506008600081548092919061078990611d08565b9190505550600854816000018190555060008160010181905550838160030181905550338160060160006101000a81548173ffffffffffffffffffffffffffffffffffffffff021916908373ffffffffffffffffffffffffffffffffffffffff16021790555082828260040191906108029291906113bb565b508585826005019182610816929190611fc0565b5060405180602001604052806008548152508160070190600161083a929190611408565b50600160009054906101000a900473ffffffffffffffffffffffffffffffffffffffff1673ffffffffffffffffffffffffffffffffffffffff1663d204c45e3388886040518463ffffffff1660e01b815260040161089a939291906120cc565b600060405180830381600087803b1580156108b457600080fd5b505af11580156108c8573d6000803e3d6000fd5b505050506001600660003373ffffffffffffffffffffffffffffffffffffffff1673ffffffffffffffffffffffffffffffffffffffff16815260200190815260200160002060006101000a81548160ff021916908315150217905550600360003373ffffffffffffffffffffffffffffffffffffffff1673ffffffffffffffffffffffffffffffffffffffff168152602001908152602001600020600081548092919061097490611d08565b9190505550600460003373ffffffffffffffffffffffffffffffffffffffff1673ffffffffffffffffffffffffffffffffffffffff16815260200190815260200160002060016008546109c791906120fe565b90806001815401808255809150506001900390600052602060002001600090919091909150553373ffffffffffffffffffffffffffffffffffffffff167fbe206cab2fc9f471c9d356638006216be29c9cca0dd14875484e46291cacd1d56008548888604051610a3993929190612132565b60405180910390a2505050505050565b6007602052806000526040600020600091509050806000015490806001015490806003015490806005018054610a7e90611ded565b80601f0160208091040260200160405190810160405280929190818152602001828054610aaa90611ded565b8015610af75780601f10610acc57610100808354040283529160200191610af7565b820191906000526020600020905b815481529060010190602001808311610ada57829003601f168201915b5050505050908060060160009054906101000a900473ffffffffffffffffffffffffffffffffffffffff16905085565b600082118015610b375750600034115b610b76576040517f08c379a0000000000000000000000000000000000000000000000000000000008152600401610b6d906121b0565b60405180910390fd5b8073ffffffffffffffffffffffffffffffffffffffff166108fc349081150290604051600060405180830381858888f19350505050158015610bbc573d6000803e3d6000fd5b5081600260003373ffffffffffffffffffffffffffffffffffffffff1673ffffffffffffffffffffffffffffffffffffffff16815260200190815260200160002060008373ffffffffffffffffffffffffffffffffffffffff1673ffffffffffffffffffffffffffffffffffffffff1681526020019081526020016000206000828254610c499190611d50565b925050819055503373ffffffffffffffffffffffffffffffffffffffff168173ffffffffffffffffffffffffffffffffffffffff167f71be8766c1bd9bb33623f518aecc1d98612c75b596f4a0c38408f72239ef4e6084604051610cad91906115a7565b60405180910390a35050565b60046020528160005260406000208181548110610cd557600080fd5b90600052602060002001600091509150505481565b60066020528060005260406000206000915054906101000a900460ff1681565b60008110158015610d2057506005805490508111155b610d5f576040517f08c379a0000000000000000000000000000000000000000000000000000000008152600401610d569061221c565b60405180910390fd5b600060058281548110610d7557610d7461223c565b5b906000526020600020906005020190503373ffffffffffffffffffffffffffffffffffffffff168160040160009054906101000a900473ffffffffffffffffffffffffffffffffffffffff1673ffffffffffffffffffffffffffffffffffffffff1614610e17576040517f08c379a0000000000000000000000000000000000000000000000000000000008152600401610e0e906122b7565b60405180910390fd5b60018160040160146101000a81548160ff02191690836003811115610e3f57610e3e61166a565b5b0217905550600060076000836001015481526020019081526020016000209050806007018260020154908060018154018082558091505060019003906000526020600020016000909190919091505560038260040160146101000a81548160ff02191690836003811115610eb657610eb561166a565b5b02179055508160030160009054906101000a900473ffffffffffffffffffffffffffffffffffffffff1673ffffffffffffffffffffffffffffffffffffffff167f7e0e99a912f5373c2c21ee071faa613ebaa48aa3aa65cca918ce3915ac07d2d88484600101548560020154604051610f31939291906122d7565b60405180910390a2505050565b60085481565b600082118015610f5657506008548211155b610f95576040517f08c379a0000000000000000000000000000000000000000000000000000000008152600401610f8c9061235a565b60405180910390fd5b600081118015610fa757506008548111155b610fe6576040517f08c379a0000000000000000000000000000000000000000000000000000000008152600401610fdd906123c6565b60405180910390fd5b610fee611455565b600580549050816000018181525050828160200181815250508181604001818152505033816060019073ffffffffffffffffffffffffffffffffffffffff16908173ffffffffffffffffffffffffffffffffffffffff168152505060008160a0019060038111156110625761106161166a565b5b908160038111156110765761107561166a565b5b81525050600160009054906101000a900473ffffffffffffffffffffffffffffffffffffffff1673ffffffffffffffffffffffffffffffffffffffff16636352211e6001856110c591906120fe565b6040518263ffffffff1660e01b81526004016110e191906115a7565b602060405180830381865afa1580156110fe573d6000803e3d6000fd5b505050506040513d601f19601f820116820180604052508101906111229190611bd4565b816080019073ffffffffffffffffffffffffffffffffffffffff16908173ffffffffffffffffffffffffffffffffffffffff1681525050600581908060018154018082558091505060019003906000526020600020906005020160009091909190915060008201518160000155602082015181600101556040820151816002015560608201518160030160006101000a81548173ffffffffffffffffffffffffffffffffffffffff021916908373ffffffffffffffffffffffffffffffffffffffff16021790555060808201518160040160006101000a81548173ffffffffffffffffffffffffffffffffffffffff021916908373ffffffffffffffffffffffffffffffffffffffff16021790555060a08201518160040160146101000a81548160ff0219169083600381111561125c5761125b61166a565b5b02179055505050600160009054906101000a900473ffffffffffffffffffffffffffffffffffffffff1673ffffffffffffffffffffffffffffffffffffffff16636352211e846040518263ffffffff1660e01b81526004016112be91906115a7565b602060405180830381865afa1580156112db573d6000803e3d6000fd5b505050506040513d601f19601f820116820180604052508101906112ff9190611bd4565b73ffffffffffffffffffffffffffffffffffffffff163373ffffffffffffffffffffffffffffffffffffffff167fec80c0e984adeade3ff5eec886846f3bc016b4cb8823e5b9890216a4a78720466005805490508686604051611364939291906122d7565b60405180910390a3505050565b60008054906101000a900473ffffffffffffffffffffffffffffffffffffffff1681565b600160009054906101000a900473ffffffffffffffffffffffffffffffffffffffff1681565b8280548282559060005260206000209081019282156113f7579160200282015b828111156113f65782358255916020019190600101906113db565b5b50905061140491906114c9565b5090565b828054828255906000526020600020908101928215611444579160200282015b82811115611443578251825591602001919060010190611428565b5b50905061145191906114c9565b5090565b6040518060c00160405280600081526020016000815260200160008152602001600073ffffffffffffffffffffffffffffffffffffffff168152602001600073ffffffffffffffffffffffffffffffffffffffff168152602001600060038111156114c3576114c261166a565b5b81525090565b5b808211156114e25760008160009055506001016114ca565b5090565b600080fd5b600080fd5b600073ffffffffffffffffffffffffffffffffffffffff82169050919050565b600061151b826114f0565b9050919050565b61152b81611510565b811461153657600080fd5b50565b60008135905061154881611522565b92915050565b60008060408385031215611565576115646114e6565b5b600061157385828601611539565b925050602061158485828601611539565b9150509250929050565b6000819050919050565b6115a18161158e565b82525050565b60006020820190506115bc6000830184611598565b92915050565b6115cb8161158e565b81146115d657600080fd5b50565b6000813590506115e8816115c2565b92915050565b60008060408385031215611605576116046114e6565b5b6000611613858286016115d9565b9250506020611624858286016115d9565b9150509250929050565b600060208284031215611644576116436114e6565b5b6000611652848285016115d9565b91505092915050565b61166481611510565b82525050565b7f4e487b7100000000000000000000000000000000000000000000000000000000600052602160045260246000fd5b600481106116aa576116a961166a565b5b50565b60008190506116bb82611699565b919050565b60006116cb826116ad565b9050919050565b6116db816116c0565b82525050565b600060c0820190506116f66000830189611598565b6117036020830188611598565b6117106040830187611598565b61171d606083018661165b565b61172a608083018561165b565b61173760a08301846116d2565b979650505050505050565b600060208284031215611758576117576114e6565b5b600061176684828501611539565b91505092915050565b600080fd5b600080fd5b600080fd5b60008083601f8401126117945761179361176f565b5b8235905067ffffffffffffffff8111156117b1576117b0611774565b5b6020830191508360018202830111156117cd576117cc611779565b5b9250929050565b60008083601f8401126117ea576117e961176f565b5b8235905067ffffffffffffffff81111561180757611806611774565b5b60208301915083602082028301111561182357611822611779565b5b9250929050565b600080600080600060608688031215611846576118456114e6565b5b600086013567ffffffffffffffff811115611864576118636114eb565b5b6118708882890161177e565b95509550506020611883888289016115d9565b935050604086013567ffffffffffffffff8111156118a4576118a36114eb565b5b6118b0888289016117d4565b92509250509295509295909350565b600081519050919050565b600082825260208201905092915050565b60005b838110156118f95780820151818401526020810190506118de565b60008484015250505050565b6000601f19601f8301169050919050565b6000611921826118bf565b61192b81856118ca565b935061193b8185602086016118db565b61194481611905565b840191505092915050565b600060a0820190506119646000830188611598565b6119716020830187611598565b61197e6040830186611598565b81810360608301526119908185611916565b905061199f608083018461165b565b9695505050505050565b60006119b4826114f0565b9050919050565b6119c4816119a9565b81146119cf57600080fd5b50565b6000813590506119e1816119bb565b92915050565b600080604083850312156119fe576119fd6114e6565b5b6000611a0c858286016115d9565b9250506020611a1d858286016119d2565b9150509250929050565b60008060408385031215611a3e57611a3d6114e6565b5b6000611a4c85828601611539565b9250506020611a5d858286016115d9565b9150509250929050565b60008115159050919050565b611a7c81611a67565b82525050565b6000602082019050611a976000830184611a73565b92915050565b6000819050919050565b6000611ac2611abd611ab8846114f0565b611a9d565b6114f0565b9050919050565b6000611ad482611aa7565b9050919050565b6000611ae682611ac9565b9050919050565b611af681611adb565b82525050565b6000602082019050611b116000830184611aed565b92915050565b6000611b2282611ac9565b9050919050565b611b3281611b17565b82525050565b6000602082019050611b4d6000830184611b29565b92915050565b7f6e6f7420612076616c6964206964000000000000000000000000000000000000600082015250565b6000611b89600e836118ca565b9150611b9482611b53565b602082019050919050565b60006020820190508181036000830152611bb881611b7c565b9050919050565b600081519050611bce81611522565b92915050565b600060208284031215611bea57611be96114e6565b5b6000611bf884828501611bbf565b91505092915050565b7f6e6f7420612076616c69642076616c696461746f720000000000000000000000600082015250565b6000611c376015836118ca565b9150611c4282611c01565b602082019050919050565b60006020820190508181036000830152611c6681611c2a565b9050919050565b7f616c726561647920766572696669656400000000000000000000000000000000600082015250565b6000611ca36010836118ca565b9150611cae82611c6d565b602082019050919050565b60006020820190508181036000830152611cd281611c96565b9050919050565b7f4e487b7100000000000000000000000000000000000000000000000000000000600052601160045260246000fd5b6000611d138261158e565b91507fffffffffffffffffffffffffffffffffffffffffffffffffffffffffffffffff8203611d4557611d44611cd9565b5b600182019050919050565b6000611d5b8261158e565b9150611d668361158e565b9250828201905080821115611d7e57611d7d611cd9565b5b92915050565b600082905092915050565b7f4e487b7100000000000000000000000000000000000000000000000000000000600052604160045260246000fd5b7f4e487b7100000000000000000000000000000000000000000000000000000000600052602260045260246000fd5b60006002820490506001821680611e0557607f821691505b602082108103611e1857611e17611dbe565b5b50919050565b60008190508160005260206000209050919050565b60006020601f8301049050919050565b600082821b905092915050565b600060088302611e807fffffffffffffffffffffffffffffffffffffffffffffffffffffffffffffffff82611e43565b611e8a8683611e43565b95508019841693508086168417925050509392505050565b6000611ebd611eb8611eb38461158e565b611a9d565b61158e565b9050919050565b6000819050919050565b611ed783611ea2565b611eeb611ee382611ec4565b848454611e50565b825550505050565b600090565b611f00611ef3565b611f0b818484611ece565b505050565b5b81811015611f2f57611f24600082611ef8565b600181019050611f11565b5050565b601f821115611f7457611f4581611e1e565b611f4e84611e33565b81016020851015611f5d578190505b611f71611f6985611e33565b830182611f10565b50505b505050565b600082821c905092915050565b6000611f9760001984600802611f79565b1980831691505092915050565b6000611fb08383611f86565b9150826002028217905092915050565b611fca8383611d84565b67ffffffffffffffff811115611fe357611fe2611d8f565b5b611fed8254611ded565b611ff8828285611f33565b6000601f8311600181146120275760008415612015578287013590505b61201f8582611fa4565b865550612087565b601f19841661203586611e1e565b60005b8281101561205d57848901358255600182019150602085019450602081019050612038565b8683101561207a5784890135612076601f891682611f86565b8355505b6001600288020188555050505b50505050505050565b82818337600083830152505050565b60006120ab83856118ca565b93506120b8838584612090565b6120c183611905565b840190509392505050565b60006040820190506120e1600083018661165b565b81810360208301526120f481848661209f565b9050949350505050565b60006121098261158e565b91506121148361158e565b925082820390508181111561212c5761212b611cd9565b5b92915050565b60006040820190506121476000830186611598565b818103602083015261215a81848661209f565b9050949350505050565b7f73656e64696e6720616e206e6567617469766520616d6f756e74000000000000600082015250565b600061219a601a836118ca565b91506121a582612164565b602082019050919050565b600060208201905081810360008301526121c98161218d565b9050919050565b7f696e76616c696420726571756573742049440000000000000000000000000000600082015250565b60006122066012836118ca565b9150612211826121d0565b602082019050919050565b60006020820190508181036000830152612235816121f9565b9050919050565b7f4e487b7100000000000000000000000000000000000000000000000000000000600052603260045260246000fd5b7f6f6e6c79206f776e65722063616e20617070726f766500000000000000000000600082015250565b60006122a16016836118ca565b91506122ac8261226b565b602082019050919050565b600060208201905081810360008301526122d081612294565b9050919050565b60006060820190506122ec6000830186611598565b6122f96020830185611598565b6123066040830184611598565b949350505050565b7f6e6f7420612076616c6964206f726967696e616c206964000000000000000000600082015250565b60006123446017836118ca565b915061234f8261230e565b602082019050919050565b6000602082019050818103600083015261237381612337565b9050919050565b7f6e6f7420612076616c6964206e65772069640000000000000000000000000000600082015250565b60006123b06012836118ca565b91506123bb8261237a565b602082019050919050565b600060208201905081810360008301526123df816123a3565b905091905056fea2646970667358221220a2a1f61e4757e0f112ec57e9adde81edd0408e7666c8b1813e13df3022f01d1564736f6c63430008120033",
  "linkReferences": {},
  "deployedLinkReferences": {}
}