{
  "_format": "hh-sol-artifact-1",
  "contractName": "Shoodh",
  "sourceName": "contracts/Shoodh.sol",
  "abi": [
    {
      "inputs": [
        {
          "internalType": "contract VerifierNFT",
          "name": "_verFT",
          "type": "address"
        },
        {
          "internalType": "contract ResearchPaper",
          "name": "_rft",
          "type": "address"
        }
      ],
      "stateMutability": "nonpayable",
      "type": "constructor"
    },
    {
      "anonymous": false,
      "inputs": [
        {
          "indexed": false,
          "internalType": "uint256",
          "name": "reqId",
          "type": "uint256"
        },
        {
          "indexed": false,
          "internalType": "uint256",
          "name": "original_id",
          "type": "uint256"
        },
        {
          "indexed": false,
          "internalType": "uint256",
          "name": "new_id",
          "type": "uint256"
        },
        {
          "indexed": true,
          "internalType": "address",
          "name": "from",
          "type": "address"
        }
      ],
      "name": "ApproveUpdate",
      "type": "event"
    },
    {
      "anonymous": false,
      "inputs": [
        {
          "indexed": true,
          "internalType": "address",
          "name": "to",
          "type": "address"
        },
        {
          "indexed": true,
          "internalType": "address",
          "name": "from",
          "type": "address"
        },
        {
          "indexed": false,
          "internalType": "uint256",
          "name": "amt",
          "type": "uint256"
        }
      ],
      "name": "Contribution",
      "type": "event"
    },
    {
      "anonymous": false,
      "inputs": [
        {
          "indexed": false,
          "internalType": "uint256",
          "name": "reqId",
          "type": "uint256"
        },
        {
          "indexed": false,
          "internalType": "uint256",
          "name": "original_id",
          "type": "uint256"
        },
        {
          "indexed": false,
          "internalType": "uint256",
          "name": "new_id",
          "type": "uint256"
        },
        {
          "indexed": true,
          "internalType": "address",
          "name": "from",
          "type": "address"
        },
        {
          "indexed": true,
          "internalType": "address",
          "name": "to",
          "type": "address"
        }
      ],
      "name": "RequestUpdate",
      "type": "event"
    },
    {
      "anonymous": false,
      "inputs": [
        {
          "indexed": false,
          "internalType": "uint256",
          "name": "id",
          "type": "uint256"
        },
        {
          "indexed": false,
          "internalType": "string",
          "name": "url",
          "type": "string"
        },
        {
          "indexed": true,
          "internalType": "address",
          "name": "author",
          "type": "address"
        }
      ],
      "name": "ResearchFormed",
      "type": "event"
    },
    {
      "inputs": [
        {
          "internalType": "uint256",
          "name": "_reqid",
          "type": "uint256"
        }
      ],
      "name": "approveRequest",
      "outputs": [],
      "stateMutability": "nonpayable",
      "type": "function"
    },
    {
      "inputs": [
        {
          "internalType": "uint256",
          "name": "_amt",
          "type": "uint256"
        },
        {
          "internalType": "address payable",
          "name": "_to",
          "type": "address"
        }
      ],
      "name": "contribute",
      "outputs": [],
      "stateMutability": "payable",
      "type": "function"
    },
    {
      "inputs": [
        {
          "internalType": "address",
          "name": "",
          "type": "address"
        },
        {
          "internalType": "address",
          "name": "",
          "type": "address"
        }
      ],
      "name": "contributions",
      "outputs": [
        {
          "internalType": "uint256",
          "name": "",
          "type": "uint256"
        }
      ],
      "stateMutability": "view",
      "type": "function"
    },
    {
      "inputs": [
        {
          "internalType": "string",
          "name": "_uri",
          "type": "string"
        },
        {
          "internalType": "uint256",
          "name": "_id_cont",
          "type": "uint256"
        },
        {
          "internalType": "uint256[]",
          "name": "_refrenced",
          "type": "uint256[]"
        }
      ],
      "name": "createResearchPaper",
      "outputs": [],
      "stateMutability": "nonpayable",
      "type": "function"
    },
    {
      "inputs": [
        {
          "internalType": "address",
          "name": "",
          "type": "address"
        }
      ],
      "name": "isreseacher",
      "outputs": [
        {
          "internalType": "bool",
          "name": "",
          "type": "bool"
        }
      ],
      "stateMutability": "view",
      "type": "function"
    },
    {
      "inputs": [],
      "name": "no_of_research",
      "outputs": [
        {
          "internalType": "uint256",
          "name": "",
          "type": "uint256"
        }
      ],
      "stateMutability": "view",
      "type": "function"
    },
    {
      "inputs": [
        {
          "internalType": "uint256",
          "name": "_original_id",
          "type": "uint256"
        },
        {
          "internalType": "uint256",
          "name": "_new_id",
          "type": "uint256"
        }
      ],
      "name": "requestResearch",
      "outputs": [],
      "stateMutability": "nonpayable",
      "type": "function"
    },
    {
      "inputs": [
        {
          "internalType": "uint256",
          "name": "",
          "type": "uint256"
        }
      ],
      "name": "requestToUpdates",
      "outputs": [
        {
          "internalType": "uint256",
          "name": "reqId",
          "type": "uint256"
        },
        {
          "internalType": "uint256",
          "name": "original_id",
          "type": "uint256"
        },
        {
          "internalType": "uint256",
          "name": "new_id",
          "type": "uint256"
        },
        {
          "internalType": "address",
          "name": "from",
          "type": "address"
        },
        {
          "internalType": "address",
          "name": "to",
          "type": "address"
        },
        {
          "internalType": "enum Shoodh.StatusReq",
          "name": "status",
          "type": "uint8"
        }
      ],
      "stateMutability": "view",
      "type": "function"
    },
    {
      "inputs": [],
      "name": "researchPaper",
      "outputs": [
        {
          "internalType": "contract ResearchPaper",
          "name": "",
          "type": "address"
        }
      ],
      "stateMutability": "view",
      "type": "function"
    },
    {
      "inputs": [
        {
          "internalType": "uint256",
          "name": "",
          "type": "uint256"
        }
      ],
      "name": "researches",
      "outputs": [
        {
          "internalType": "uint256",
          "name": "id",
          "type": "uint256"
        },
        {
          "internalType": "uint256",
          "name": "no_of_verifications",
          "type": "uint256"
        },
        {
          "internalType": "uint256",
          "name": "id_cont",
          "type": "uint256"
        },
        {
          "internalType": "string",
          "name": "uri",
          "type": "string"
        },
        {
          "internalType": "address",
          "name": "author",
          "type": "address"
        }
      ],
      "stateMutability": "view",
      "type": "function"
    },
    {
      "inputs": [],
      "name": "verifierNFT",
      "outputs": [
        {
          "internalType": "contract VerifierNFT",
          "name": "",
          "type": "address"
        }
      ],
      "stateMutability": "view",
      "type": "function"
    },
    {
      "inputs": [
        {
          "internalType": "uint256",
          "name": "_id",
          "type": "uint256"
        },
        {
          "internalType": "uint256",
          "name": "_myid",
          "type": "uint256"
        }
      ],
      "name": "verifyResearch",
      "outputs": [],
      "stateMutability": "nonpayable",
      "type": "function"
    }
  ],
  "bytecode": "0x608060405260006006553480156200001657600080fd5b50604051620023f9380380620023f983398181016040528101906200003c919062000188565b816000806101000a81548173ffffffffffffffffffffffffffffffffffffffff021916908373ffffffffffffffffffffffffffffffffffffffff16021790555080600160006101000a81548173ffffffffffffffffffffffffffffffffffffffff021916908373ffffffffffffffffffffffffffffffffffffffff1602179055505050620001cf565b600080fd5b600073ffffffffffffffffffffffffffffffffffffffff82169050919050565b6000620000f782620000ca565b9050919050565b60006200010b82620000ea565b9050919050565b6200011d81620000fe565b81146200012957600080fd5b50565b6000815190506200013d8162000112565b92915050565b60006200015082620000ea565b9050919050565b620001628162000143565b81146200016e57600080fd5b50565b600081519050620001828162000157565b92915050565b60008060408385031215620001a257620001a1620000c5565b5b6000620001b2858286016200012c565b9250506020620001c58582860162000171565b9150509250929050565b61221a80620001df6000396000f3fe6080604052600436106100a75760003560e01c8063c3c049c711610064578063c3c049c7146101da578063d7d1bbdb14610217578063df93edf814610240578063e7c894a41461026b578063eb94074c14610294578063ec5e2bda146102bf576100a7565b806329369ccf146100ac5780632ee3a7a6146100e9578063487d98d41461011257806355bbd8b2146101545780635f7d07041461017d57806360b0b0f0146101be575b600080fd5b3480156100b857600080fd5b506100d360048036038101906100ce919061138c565b6102ea565b6040516100e091906113e5565b60405180910390f35b3480156100f557600080fd5b50610110600480360381019061010b919061142c565b61030f565b005b34801561011e57600080fd5b506101396004803603810190610134919061146c565b61059e565b60405161014b9695949392919061151f565b60405180910390f35b34801561016057600080fd5b5061017b6004803603810190610176919061163b565b610637565b005b34801561018957600080fd5b506101a4600480360381019061019f919061146c565b6108b8565b6040516101b5959493929190611760565b60405180910390f35b6101d860048036038101906101d391906117f8565b610996565b005b3480156101e657600080fd5b5061020160048036038101906101fc9190611838565b610b28565b60405161020e9190611880565b60405180910390f35b34801561022357600080fd5b5061023e6004803603810190610239919061146c565b610b48565b005b34801561024c57600080fd5b50610255610d7c565b60405161026291906113e5565b60405180910390f35b34801561027757600080fd5b50610292600480360381019061028d919061142c565b610d82565b005b3480156102a057600080fd5b506102a96111af565b6040516102b691906118fa565b60405180910390f35b3480156102cb57600080fd5b506102d46111d3565b6040516102e19190611936565b60405180910390f35b6002602052816000526040600020602052806000526040600020600091509150505481565b60008211801561032157506006548211155b610360576040517f08c379a00000000000000000000000000000000000000000000000000000000081526004016103579061199d565b60405180910390fd5b3373ffffffffffffffffffffffffffffffffffffffff1660008054906101000a900473ffffffffffffffffffffffffffffffffffffffff1673ffffffffffffffffffffffffffffffffffffffff16636352211e836040518263ffffffff1660e01b81526004016103d091906113e5565b602060405180830381865afa1580156103ed573d6000803e3d6000fd5b505050506040513d601f19601f8201168201806040525081019061041191906119d2565b73ffffffffffffffffffffffffffffffffffffffff1614610467576040517f08c379a000000000000000000000000000000000000000000000000000000000815260040161045e90611a4b565b60405180910390fd5b600015156005600084815260200190815260200160002060020160003373ffffffffffffffffffffffffffffffffffffffff1673ffffffffffffffffffffffffffffffffffffffff16815260200190815260200160002060009054906101000a900460ff1615151461050e576040517f08c379a000000000000000000000000000000000000000000000000000000000815260040161050590611ab7565b60405180910390fd5b600060056000848152602001908152602001600020905080600101600081548092919061053a90611b06565b919050555060018160020160003373ffffffffffffffffffffffffffffffffffffffff1673ffffffffffffffffffffffffffffffffffffffff16815260200190815260200160002060006101000a81548160ff021916908315150217905550505050565b600381815481106105ae57600080fd5b90600052602060002090600502016000915090508060000154908060010154908060020154908060030160009054906101000a900473ffffffffffffffffffffffffffffffffffffffff16908060040160009054906101000a900473ffffffffffffffffffffffffffffffffffffffff16908060040160149054906101000a900460ff16905086565b6000831015801561064a57506006548311155b610689576040517f08c379a00000000000000000000000000000000000000000000000000000000081526004016106809061199d565b60405180910390fd5b600060056000600160065461069e9190611b4e565b81526020019081526020016000209050600660008154809291906106c190611b06565b9190505550600654816000018190555060008160010181905550838160030181905550338160060160006101000a81548173ffffffffffffffffffffffffffffffffffffffff021916908373ffffffffffffffffffffffffffffffffffffffff160217905550828282600401919061073a9291906111f9565b50858582600501918261074e929190611dbe565b50604051806020016040528060065481525081600701906001610772929190611246565b50600160009054906101000a900473ffffffffffffffffffffffffffffffffffffffff1673ffffffffffffffffffffffffffffffffffffffff1663d204c45e3388886040518463ffffffff1660e01b81526004016107d293929190611eca565b600060405180830381600087803b1580156107ec57600080fd5b505af1158015610800573d6000803e3d6000fd5b505050506001600460003373ffffffffffffffffffffffffffffffffffffffff1673ffffffffffffffffffffffffffffffffffffffff16815260200190815260200160002060006101000a81548160ff0219169083151502179055503373ffffffffffffffffffffffffffffffffffffffff167fbe206cab2fc9f471c9d356638006216be29c9cca0dd14875484e46291cacd1d560065488886040516108a893929190611efc565b60405180910390a2505050505050565b60056020528060005260406000206000915090508060000154908060010154908060030154908060050180546108ed90611beb565b80601f016020809104026020016040519081016040528092919081815260200182805461091990611beb565b80156109665780601f1061093b57610100808354040283529160200191610966565b820191906000526020600020905b81548152906001019060200180831161094957829003601f168201915b5050505050908060060160009054906101000a900473ffffffffffffffffffffffffffffffffffffffff16905085565b6000821180156109a65750600034115b6109e5576040517f08c379a00000000000000000000000000000000000000000000000000000000081526004016109dc90611f7a565b60405180910390fd5b8073ffffffffffffffffffffffffffffffffffffffff166108fc349081150290604051600060405180830381858888f19350505050158015610a2b573d6000803e3d6000fd5b5081600260003373ffffffffffffffffffffffffffffffffffffffff1673ffffffffffffffffffffffffffffffffffffffff16815260200190815260200160002060008373ffffffffffffffffffffffffffffffffffffffff1673ffffffffffffffffffffffffffffffffffffffff1681526020019081526020016000206000828254610ab89190611b4e565b925050819055503373ffffffffffffffffffffffffffffffffffffffff168173ffffffffffffffffffffffffffffffffffffffff167f71be8766c1bd9bb33623f518aecc1d98612c75b596f4a0c38408f72239ef4e6084604051610b1c91906113e5565b60405180910390a35050565b60046020528060005260406000206000915054906101000a900460ff1681565b60008110158015610b5e57506003805490508111155b610b9d576040517f08c379a0000000000000000000000000000000000000000000000000000000008152600401610b9490611fe6565b60405180910390fd5b600060038281548110610bb357610bb2612006565b5b906000526020600020906005020190503373ffffffffffffffffffffffffffffffffffffffff168160040160009054906101000a900473ffffffffffffffffffffffffffffffffffffffff1673ffffffffffffffffffffffffffffffffffffffff1614610c55576040517f08c379a0000000000000000000000000000000000000000000000000000000008152600401610c4c90612081565b60405180910390fd5b60018160040160146101000a81548160ff02191690836003811115610c7d57610c7c6114a8565b5b0217905550600060056000836001015481526020019081526020016000209050806007018260020154908060018154018082558091505060019003906000526020600020016000909190919091505560038260040160146101000a81548160ff02191690836003811115610cf457610cf36114a8565b5b02179055508160030160009054906101000a900473ffffffffffffffffffffffffffffffffffffffff1673ffffffffffffffffffffffffffffffffffffffff167f7e0e99a912f5373c2c21ee071faa613ebaa48aa3aa65cca918ce3915ac07d2d88484600101548560020154604051610d6f939291906120a1565b60405180910390a2505050565b60065481565b600082118015610d9457506006548211155b610dd3576040517f08c379a0000000000000000000000000000000000000000000000000000000008152600401610dca90612124565b60405180910390fd5b600081118015610de557506006548111155b610e24576040517f08c379a0000000000000000000000000000000000000000000000000000000008152600401610e1b90612190565b60405180910390fd5b610e2c611293565b600380549050816000018181525050828160200181815250508181604001818152505033816060019073ffffffffffffffffffffffffffffffffffffffff16908173ffffffffffffffffffffffffffffffffffffffff168152505060008160a001906003811115610ea057610e9f6114a8565b5b90816003811115610eb457610eb36114a8565b5b81525050600160009054906101000a900473ffffffffffffffffffffffffffffffffffffffff1673ffffffffffffffffffffffffffffffffffffffff16636352211e600185610f0391906121b0565b6040518263ffffffff1660e01b8152600401610f1f91906113e5565b602060405180830381865afa158015610f3c573d6000803e3d6000fd5b505050506040513d601f19601f82011682018060405250810190610f6091906119d2565b816080019073ffffffffffffffffffffffffffffffffffffffff16908173ffffffffffffffffffffffffffffffffffffffff1681525050600381908060018154018082558091505060019003906000526020600020906005020160009091909190915060008201518160000155602082015181600101556040820151816002015560608201518160030160006101000a81548173ffffffffffffffffffffffffffffffffffffffff021916908373ffffffffffffffffffffffffffffffffffffffff16021790555060808201518160040160006101000a81548173ffffffffffffffffffffffffffffffffffffffff021916908373ffffffffffffffffffffffffffffffffffffffff16021790555060a08201518160040160146101000a81548160ff0219169083600381111561109a576110996114a8565b5b02179055505050600160009054906101000a900473ffffffffffffffffffffffffffffffffffffffff1673ffffffffffffffffffffffffffffffffffffffff16636352211e846040518263ffffffff1660e01b81526004016110fc91906113e5565b602060405180830381865afa158015611119573d6000803e3d6000fd5b505050506040513d601f19601f8201168201806040525081019061113d91906119d2565b73ffffffffffffffffffffffffffffffffffffffff163373ffffffffffffffffffffffffffffffffffffffff167fec80c0e984adeade3ff5eec886846f3bc016b4cb8823e5b9890216a4a787204660038054905086866040516111a2939291906120a1565b60405180910390a3505050565b60008054906101000a900473ffffffffffffffffffffffffffffffffffffffff1681565b600160009054906101000a900473ffffffffffffffffffffffffffffffffffffffff1681565b828054828255906000526020600020908101928215611235579160200282015b82811115611234578235825591602001919060010190611219565b5b5090506112429190611307565b5090565b828054828255906000526020600020908101928215611282579160200282015b82811115611281578251825591602001919060010190611266565b5b50905061128f9190611307565b5090565b6040518060c00160405280600081526020016000815260200160008152602001600073ffffffffffffffffffffffffffffffffffffffff168152602001600073ffffffffffffffffffffffffffffffffffffffff16815260200160006003811115611301576113006114a8565b5b81525090565b5b80821115611320576000816000905550600101611308565b5090565b600080fd5b600080fd5b600073ffffffffffffffffffffffffffffffffffffffff82169050919050565b60006113598261132e565b9050919050565b6113698161134e565b811461137457600080fd5b50565b60008135905061138681611360565b92915050565b600080604083850312156113a3576113a2611324565b5b60006113b185828601611377565b92505060206113c285828601611377565b9150509250929050565b6000819050919050565b6113df816113cc565b82525050565b60006020820190506113fa60008301846113d6565b92915050565b611409816113cc565b811461141457600080fd5b50565b60008135905061142681611400565b92915050565b6000806040838503121561144357611442611324565b5b600061145185828601611417565b925050602061146285828601611417565b9150509250929050565b60006020828403121561148257611481611324565b5b600061149084828501611417565b91505092915050565b6114a28161134e565b82525050565b7f4e487b7100000000000000000000000000000000000000000000000000000000600052602160045260246000fd5b600481106114e8576114e76114a8565b5b50565b60008190506114f9826114d7565b919050565b6000611509826114eb565b9050919050565b611519816114fe565b82525050565b600060c08201905061153460008301896113d6565b61154160208301886113d6565b61154e60408301876113d6565b61155b6060830186611499565b6115686080830185611499565b61157560a0830184611510565b979650505050505050565b600080fd5b600080fd5b600080fd5b60008083601f8401126115a5576115a4611580565b5b8235905067ffffffffffffffff8111156115c2576115c1611585565b5b6020830191508360018202830111156115de576115dd61158a565b5b9250929050565b60008083601f8401126115fb576115fa611580565b5b8235905067ffffffffffffffff81111561161857611617611585565b5b6020830191508360208202830111156116345761163361158a565b5b9250929050565b60008060008060006060868803121561165757611656611324565b5b600086013567ffffffffffffffff81111561167557611674611329565b5b6116818882890161158f565b9550955050602061169488828901611417565b935050604086013567ffffffffffffffff8111156116b5576116b4611329565b5b6116c1888289016115e5565b92509250509295509295909350565b600081519050919050565b600082825260208201905092915050565b60005b8381101561170a5780820151818401526020810190506116ef565b60008484015250505050565b6000601f19601f8301169050919050565b6000611732826116d0565b61173c81856116db565b935061174c8185602086016116ec565b61175581611716565b840191505092915050565b600060a08201905061177560008301886113d6565b61178260208301876113d6565b61178f60408301866113d6565b81810360608301526117a18185611727565b90506117b06080830184611499565b9695505050505050565b60006117c58261132e565b9050919050565b6117d5816117ba565b81146117e057600080fd5b50565b6000813590506117f2816117cc565b92915050565b6000806040838503121561180f5761180e611324565b5b600061181d85828601611417565b925050602061182e858286016117e3565b9150509250929050565b60006020828403121561184e5761184d611324565b5b600061185c84828501611377565b91505092915050565b60008115159050919050565b61187a81611865565b82525050565b60006020820190506118956000830184611871565b92915050565b6000819050919050565b60006118c06118bb6118b68461132e565b61189b565b61132e565b9050919050565b60006118d2826118a5565b9050919050565b60006118e4826118c7565b9050919050565b6118f4816118d9565b82525050565b600060208201905061190f60008301846118eb565b92915050565b6000611920826118c7565b9050919050565b61193081611915565b82525050565b600060208201905061194b6000830184611927565b92915050565b7f6e6f7420612076616c6964206964000000000000000000000000000000000000600082015250565b6000611987600e836116db565b915061199282611951565b602082019050919050565b600060208201905081810360008301526119b68161197a565b9050919050565b6000815190506119cc81611360565b92915050565b6000602082840312156119e8576119e7611324565b5b60006119f6848285016119bd565b91505092915050565b7f6e6f7420612076616c69642076616c696461746f720000000000000000000000600082015250565b6000611a356015836116db565b9150611a40826119ff565b602082019050919050565b60006020820190508181036000830152611a6481611a28565b9050919050565b7f616c726561647920766572696669656400000000000000000000000000000000600082015250565b6000611aa16010836116db565b9150611aac82611a6b565b602082019050919050565b60006020820190508181036000830152611ad081611a94565b9050919050565b7f4e487b7100000000000000000000000000000000000000000000000000000000600052601160045260246000fd5b6000611b11826113cc565b91507fffffffffffffffffffffffffffffffffffffffffffffffffffffffffffffffff8203611b4357611b42611ad7565b5b600182019050919050565b6000611b59826113cc565b9150611b64836113cc565b9250828201905080821115611b7c57611b7b611ad7565b5b92915050565b600082905092915050565b7f4e487b7100000000000000000000000000000000000000000000000000000000600052604160045260246000fd5b7f4e487b7100000000000000000000000000000000000000000000000000000000600052602260045260246000fd5b60006002820490506001821680611c0357607f821691505b602082108103611c1657611c15611bbc565b5b50919050565b60008190508160005260206000209050919050565b60006020601f8301049050919050565b600082821b905092915050565b600060088302611c7e7fffffffffffffffffffffffffffffffffffffffffffffffffffffffffffffffff82611c41565b611c888683611c41565b95508019841693508086168417925050509392505050565b6000611cbb611cb6611cb1846113cc565b61189b565b6113cc565b9050919050565b6000819050919050565b611cd583611ca0565b611ce9611ce182611cc2565b848454611c4e565b825550505050565b600090565b611cfe611cf1565b611d09818484611ccc565b505050565b5b81811015611d2d57611d22600082611cf6565b600181019050611d0f565b5050565b601f821115611d7257611d4381611c1c565b611d4c84611c31565b81016020851015611d5b578190505b611d6f611d6785611c31565b830182611d0e565b50505b505050565b600082821c905092915050565b6000611d9560001984600802611d77565b1980831691505092915050565b6000611dae8383611d84565b9150826002028217905092915050565b611dc88383611b82565b67ffffffffffffffff811115611de157611de0611b8d565b5b611deb8254611beb565b611df6828285611d31565b6000601f831160018114611e255760008415611e13578287013590505b611e1d8582611da2565b865550611e85565b601f198416611e3386611c1c565b60005b82811015611e5b57848901358255600182019150602085019450602081019050611e36565b86831015611e785784890135611e74601f891682611d84565b8355505b6001600288020188555050505b50505050505050565b82818337600083830152505050565b6000611ea983856116db565b9350611eb6838584611e8e565b611ebf83611716565b840190509392505050565b6000604082019050611edf6000830186611499565b8181036020830152611ef2818486611e9d565b9050949350505050565b6000604082019050611f1160008301866113d6565b8181036020830152611f24818486611e9d565b9050949350505050565b7f73656e64696e6720616e206e6567617469766520616d6f756e74000000000000600082015250565b6000611f64601a836116db565b9150611f6f82611f2e565b602082019050919050565b60006020820190508181036000830152611f9381611f57565b9050919050565b7f696e76616c696420726571756573742049440000000000000000000000000000600082015250565b6000611fd06012836116db565b9150611fdb82611f9a565b602082019050919050565b60006020820190508181036000830152611fff81611fc3565b9050919050565b7f4e487b7100000000000000000000000000000000000000000000000000000000600052603260045260246000fd5b7f6f6e6c79206f776e65722063616e20617070726f766500000000000000000000600082015250565b600061206b6016836116db565b915061207682612035565b602082019050919050565b6000602082019050818103600083015261209a8161205e565b9050919050565b60006060820190506120b660008301866113d6565b6120c360208301856113d6565b6120d060408301846113d6565b949350505050565b7f6e6f7420612076616c6964206f726967696e616c206964000000000000000000600082015250565b600061210e6017836116db565b9150612119826120d8565b602082019050919050565b6000602082019050818103600083015261213d81612101565b9050919050565b7f6e6f7420612076616c6964206e65772069640000000000000000000000000000600082015250565b600061217a6012836116db565b915061218582612144565b602082019050919050565b600060208201905081810360008301526121a98161216d565b9050919050565b60006121bb826113cc565b91506121c6836113cc565b92508282039050818111156121de576121dd611ad7565b5b9291505056fea2646970667358221220ee5e133fe8d9db354479cdb8d75f073d961bf999e3054d3518d67b1fe2a2a67464736f6c63430008120033",
  "linkReferences": {},
  "deployedLinkReferences": {}
}