{
  "_format": "hh-sol-artifact-1",
  "contractName": "Shoodh",
  "sourceName": "contracts/Shoodh.sol",
  "abi": [
    {
      "inputs": [
        {
          "internalType": "contract VerifierNFT",
          "name": "_verFT",
          "type": "address"
        },
        {
          "internalType": "contract ResearchPaper",
          "name": "_rft",
          "type": "address"
        }
      ],
      "stateMutability": "nonpayable",
      "type": "constructor"
    },
    {
      "anonymous": false,
      "inputs": [
        {
          "indexed": false,
          "internalType": "uint256",
          "name": "reqId",
          "type": "uint256"
        },
        {
          "indexed": false,
          "internalType": "uint256",
          "name": "original_id",
          "type": "uint256"
        },
        {
          "indexed": false,
          "internalType": "uint256",
          "name": "new_id",
          "type": "uint256"
        },
        {
          "indexed": true,
          "internalType": "address",
          "name": "from",
          "type": "address"
        }
      ],
      "name": "ApproveUpdate",
      "type": "event"
    },
    {
      "anonymous": false,
      "inputs": [
        {
          "indexed": true,
          "internalType": "address",
          "name": "to",
          "type": "address"
        },
        {
          "indexed": true,
          "internalType": "address",
          "name": "from",
          "type": "address"
        },
        {
          "indexed": false,
          "internalType": "uint256",
          "name": "amt",
          "type": "uint256"
        }
      ],
      "name": "Contribution",
      "type": "event"
    },
    {
      "anonymous": false,
      "inputs": [
        {
          "indexed": false,
          "internalType": "uint256",
          "name": "reqId",
          "type": "uint256"
        },
        {
          "indexed": false,
          "internalType": "uint256",
          "name": "original_id",
          "type": "uint256"
        },
        {
          "indexed": false,
          "internalType": "uint256",
          "name": "new_id",
          "type": "uint256"
        },
        {
          "indexed": true,
          "internalType": "address",
          "name": "from",
          "type": "address"
        },
        {
          "indexed": true,
          "internalType": "address",
          "name": "to",
          "type": "address"
        }
      ],
      "name": "RequestUpdate",
      "type": "event"
    },
    {
      "anonymous": false,
      "inputs": [
        {
          "indexed": false,
          "internalType": "uint256",
          "name": "id",
          "type": "uint256"
        },
        {
          "indexed": false,
          "internalType": "string",
          "name": "url",
          "type": "string"
        },
        {
          "indexed": true,
          "internalType": "address",
          "name": "author",
          "type": "address"
        }
      ],
      "name": "ResearchFormed",
      "type": "event"
    },
    {
      "inputs": [
        {
          "internalType": "uint256",
          "name": "_reqid",
          "type": "uint256"
        }
      ],
      "name": "approveRequest",
      "outputs": [],
      "stateMutability": "nonpayable",
      "type": "function"
    },
    {
      "inputs": [
        {
          "internalType": "uint256",
          "name": "_amt",
          "type": "uint256"
        },
        {
          "internalType": "address payable",
          "name": "_to",
          "type": "address"
        }
      ],
      "name": "contribute",
      "outputs": [],
      "stateMutability": "payable",
      "type": "function"
    },
    {
      "inputs": [
        {
          "internalType": "address",
          "name": "",
          "type": "address"
        }
      ],
      "name": "contributions",
      "outputs": [
        {
          "internalType": "uint256",
          "name": "",
          "type": "uint256"
        }
      ],
      "stateMutability": "view",
      "type": "function"
    },
    {
      "inputs": [
        {
          "internalType": "string",
          "name": "_uri",
          "type": "string"
        },
        {
          "internalType": "uint256",
          "name": "_id_cont",
          "type": "uint256"
        },
        {
          "internalType": "uint256[]",
          "name": "_refrenced",
          "type": "uint256[]"
        }
      ],
      "name": "createResearchPaper",
      "outputs": [],
      "stateMutability": "nonpayable",
      "type": "function"
    },
    {
      "inputs": [
        {
          "internalType": "address",
          "name": "_user",
          "type": "address"
        }
      ],
      "name": "getResearches",
      "outputs": [
        {
          "internalType": "uint256[]",
          "name": "",
          "type": "uint256[]"
        }
      ],
      "stateMutability": "view",
      "type": "function"
    },
    {
      "inputs": [
        {
          "internalType": "address",
          "name": "",
          "type": "address"
        }
      ],
      "name": "isreseacher",
      "outputs": [
        {
          "internalType": "bool",
          "name": "",
          "type": "bool"
        }
      ],
      "stateMutability": "view",
      "type": "function"
    },
    {
      "inputs": [
        {
          "internalType": "address",
          "name": "",
          "type": "address"
        }
      ],
      "name": "noResearch",
      "outputs": [
        {
          "internalType": "uint256",
          "name": "",
          "type": "uint256"
        }
      ],
      "stateMutability": "view",
      "type": "function"
    },
    {
      "inputs": [],
      "name": "no_of_research",
      "outputs": [
        {
          "internalType": "uint256",
          "name": "",
          "type": "uint256"
        }
      ],
      "stateMutability": "view",
      "type": "function"
    },
    {
      "inputs": [
        {
          "internalType": "uint256",
          "name": "_original_id",
          "type": "uint256"
        },
        {
          "internalType": "uint256",
          "name": "_new_id",
          "type": "uint256"
        }
      ],
      "name": "requestResearch",
      "outputs": [],
      "stateMutability": "nonpayable",
      "type": "function"
    },
    {
      "inputs": [
        {
          "internalType": "uint256",
          "name": "",
          "type": "uint256"
        }
      ],
      "name": "requestToUpdates",
      "outputs": [
        {
          "internalType": "uint256",
          "name": "reqId",
          "type": "uint256"
        },
        {
          "internalType": "uint256",
          "name": "original_id",
          "type": "uint256"
        },
        {
          "internalType": "uint256",
          "name": "new_id",
          "type": "uint256"
        },
        {
          "internalType": "address",
          "name": "from",
          "type": "address"
        },
        {
          "internalType": "address",
          "name": "to",
          "type": "address"
        },
        {
          "internalType": "enum Shoodh.StatusReq",
          "name": "status",
          "type": "uint8"
        }
      ],
      "stateMutability": "view",
      "type": "function"
    },
    {
      "inputs": [],
      "name": "researchPaper",
      "outputs": [
        {
          "internalType": "contract ResearchPaper",
          "name": "",
          "type": "address"
        }
      ],
      "stateMutability": "view",
      "type": "function"
    },
    {
      "inputs": [
        {
          "internalType": "uint256",
          "name": "",
          "type": "uint256"
        }
      ],
      "name": "researches",
      "outputs": [
        {
          "internalType": "uint256",
          "name": "id",
          "type": "uint256"
        },
        {
          "internalType": "uint256",
          "name": "no_of_verifications",
          "type": "uint256"
        },
        {
          "internalType": "uint256",
          "name": "id_cont",
          "type": "uint256"
        },
        {
          "internalType": "string",
          "name": "uri",
          "type": "string"
        },
        {
          "internalType": "address",
          "name": "author",
          "type": "address"
        }
      ],
      "stateMutability": "view",
      "type": "function"
    },
    {
      "inputs": [
        {
          "internalType": "address",
          "name": "",
          "type": "address"
        },
        {
          "internalType": "uint256",
          "name": "",
          "type": "uint256"
        }
      ],
      "name": "userResearches",
      "outputs": [
        {
          "internalType": "uint256",
          "name": "",
          "type": "uint256"
        }
      ],
      "stateMutability": "view",
      "type": "function"
    },
    {
      "inputs": [],
      "name": "verifierNFT",
      "outputs": [
        {
          "internalType": "contract VerifierNFT",
          "name": "",
          "type": "address"
        }
      ],
      "stateMutability": "view",
      "type": "function"
    },
    {
      "inputs": [
        {
          "internalType": "uint256",
          "name": "_id",
          "type": "uint256"
        },
        {
          "internalType": "uint256",
          "name": "_myid",
          "type": "uint256"
        }
      ],
      "name": "verifyResearch",
      "outputs": [],
      "stateMutability": "nonpayable",
      "type": "function"
    }
  ],
  "bytecode": "0x608060405260006008553480156200001657600080fd5b50604051620027303803806200273083398181016040528101906200003c919062000188565b816000806101000a81548173ffffffffffffffffffffffffffffffffffffffff021916908373ffffffffffffffffffffffffffffffffffffffff16021790555080600160006101000a81548173ffffffffffffffffffffffffffffffffffffffff021916908373ffffffffffffffffffffffffffffffffffffffff1602179055505050620001cf565b600080fd5b600073ffffffffffffffffffffffffffffffffffffffff82169050919050565b6000620000f782620000ca565b9050919050565b60006200010b82620000ea565b9050919050565b6200011d81620000fe565b81146200012957600080fd5b50565b6000815190506200013d8162000112565b92915050565b60006200015082620000ea565b9050919050565b620001628162000143565b81146200016e57600080fd5b50565b600081519050620001828162000157565b92915050565b60008060408385031215620001a257620001a1620000c5565b5b6000620001b2858286016200012c565b9250506020620001c58582860162000171565b9150509250929050565b61255180620001df6000396000f3fe6080604052600436106100e85760003560e01c806360b0b0f01161008a578063df93edf811610059578063df93edf814610338578063e7c894a414610363578063eb94074c1461038c578063ec5e2bda146103b7576100e8565b806360b0b0f014610279578063953ca33114610295578063c3c049c7146102d2578063d7d1bbdb1461030f576100e8565b8063487d98d4116100c6578063487d98d4146101905780634975e44e146101d257806355bbd8b21461020f5780635f7d070414610238576100e8565b80632ee3a7a6146100ed57806335d9ed081461011657806342e94c9014610153575b600080fd5b3480156100f957600080fd5b50610114600480360381019061010f91906115bb565b6103e2565b005b34801561012257600080fd5b5061013d60048036038101906101389190611659565b610671565b60405161014a9190611744565b60405180910390f35b34801561015f57600080fd5b5061017a60048036038101906101759190611659565b610708565b6040516101879190611775565b60405180910390f35b34801561019c57600080fd5b506101b760048036038101906101b29190611790565b610720565b6040516101c996959493929190611843565b60405180910390f35b3480156101de57600080fd5b506101f960048036038101906101f49190611659565b6107b9565b6040516102069190611775565b60405180910390f35b34801561021b57600080fd5b506102366004803603810190610231919061195f565b6107d1565b005b34801561024457600080fd5b5061025f600480360381019061025a9190611790565b610b1b565b604051610270959493929190611a84565b60405180910390f35b610293600480360381019061028e9190611b1c565b610bf9565b005b3480156102a157600080fd5b506102bc60048036038101906102b79190611b5c565b610d4e565b6040516102c99190611775565b60405180910390f35b3480156102de57600080fd5b506102f960048036038101906102f49190611659565b610d7f565b6040516103069190611bb7565b60405180910390f35b34801561031b57600080fd5b5061033660048036038101906103319190611790565b610d9f565b005b34801561034457600080fd5b5061034d610fd3565b60405161035a9190611775565b60405180910390f35b34801561036f57600080fd5b5061038a600480360381019061038591906115bb565b610fd9565b005b34801561039857600080fd5b506103a1611406565b6040516103ae9190611c31565b60405180910390f35b3480156103c357600080fd5b506103cc61142a565b6040516103d99190611c6d565b60405180910390f35b6000821180156103f457506008548211155b610433576040517f08c379a000000000000000000000000000000000000000000000000000000000815260040161042a90611cd4565b60405180910390fd5b3373ffffffffffffffffffffffffffffffffffffffff1660008054906101000a900473ffffffffffffffffffffffffffffffffffffffff1673ffffffffffffffffffffffffffffffffffffffff16636352211e836040518263ffffffff1660e01b81526004016104a39190611775565b602060405180830381865afa1580156104c0573d6000803e3d6000fd5b505050506040513d601f19601f820116820180604052508101906104e49190611d09565b73ffffffffffffffffffffffffffffffffffffffff161461053a576040517f08c379a000000000000000000000000000000000000000000000000000000000815260040161053190611d82565b60405180910390fd5b600015156007600084815260200190815260200160002060020160003373ffffffffffffffffffffffffffffffffffffffff1673ffffffffffffffffffffffffffffffffffffffff16815260200190815260200160002060009054906101000a900460ff161515146105e1576040517f08c379a00000000000000000000000000000000000000000000000000000000081526004016105d890611dee565b60405180910390fd5b600060076000848152602001908152602001600020905080600101600081548092919061060d90611e3d565b919050555060018160020160003373ffffffffffffffffffffffffffffffffffffffff1673ffffffffffffffffffffffffffffffffffffffff16815260200190815260200160002060006101000a81548160ff021916908315150217905550505050565b6060600460008373ffffffffffffffffffffffffffffffffffffffff1673ffffffffffffffffffffffffffffffffffffffff1681526020019081526020016000208054806020026020016040519081016040528092919081815260200182805480156106fc57602002820191906000526020600020905b8154815260200190600101908083116106e8575b50505050509050919050565b60026020528060005260406000206000915090505481565b6005818154811061073057600080fd5b90600052602060002090600502016000915090508060000154908060010154908060020154908060030160009054906101000a900473ffffffffffffffffffffffffffffffffffffffff16908060040160009054906101000a900473ffffffffffffffffffffffffffffffffffffffff16908060040160149054906101000a900460ff16905086565b60036020528060005260406000206000915090505481565b600083101580156107e457506008548311155b610823576040517f08c379a000000000000000000000000000000000000000000000000000000000815260040161081a90611cd4565b60405180910390fd5b60006007600060016008546108389190611e85565b815260200190815260200160002090506008600081548092919061085b90611e3d565b9190505550600854816000018190555060008160010181905550838160030181905550338160060160006101000a81548173ffffffffffffffffffffffffffffffffffffffff021916908373ffffffffffffffffffffffffffffffffffffffff16021790555082828260040191906108d4929190611450565b5085858260050191826108e89291906120f5565b5060405180602001604052806008548152508160070190600161090c92919061149d565b50600160009054906101000a900473ffffffffffffffffffffffffffffffffffffffff1673ffffffffffffffffffffffffffffffffffffffff1663d204c45e3388886040518463ffffffff1660e01b815260040161096c93929190612201565b600060405180830381600087803b15801561098657600080fd5b505af115801561099a573d6000803e3d6000fd5b505050506001600660003373ffffffffffffffffffffffffffffffffffffffff1673ffffffffffffffffffffffffffffffffffffffff16815260200190815260200160002060006101000a81548160ff021916908315150217905550600360003373ffffffffffffffffffffffffffffffffffffffff1673ffffffffffffffffffffffffffffffffffffffff1681526020019081526020016000206000815480929190610a4690611e3d565b9190505550600460003373ffffffffffffffffffffffffffffffffffffffff1673ffffffffffffffffffffffffffffffffffffffff1681526020019081526020016000206001600854610a999190612233565b90806001815401808255809150506001900390600052602060002001600090919091909150553373ffffffffffffffffffffffffffffffffffffffff167fbe206cab2fc9f471c9d356638006216be29c9cca0dd14875484e46291cacd1d56008548888604051610b0b93929190612267565b60405180910390a2505050505050565b6007602052806000526040600020600091509050806000015490806001015490806003015490806005018054610b5090611f22565b80601f0160208091040260200160405190810160405280929190818152602001828054610b7c90611f22565b8015610bc95780601f10610b9e57610100808354040283529160200191610bc9565b820191906000526020600020905b815481529060010190602001808311610bac57829003601f168201915b5050505050908060060160009054906101000a900473ffffffffffffffffffffffffffffffffffffffff16905085565b600082118015610c095750600034115b610c48576040517f08c379a0000000000000000000000000000000000000000000000000000000008152600401610c3f906122e5565b60405180910390fd5b8073ffffffffffffffffffffffffffffffffffffffff166108fc349081150290604051600060405180830381858888f19350505050158015610c8e573d6000803e3d6000fd5b5081600260003373ffffffffffffffffffffffffffffffffffffffff1673ffffffffffffffffffffffffffffffffffffffff1681526020019081526020016000206000828254610cde9190611e85565b925050819055503373ffffffffffffffffffffffffffffffffffffffff168173ffffffffffffffffffffffffffffffffffffffff167f71be8766c1bd9bb33623f518aecc1d98612c75b596f4a0c38408f72239ef4e6084604051610d429190611775565b60405180910390a35050565b60046020528160005260406000208181548110610d6a57600080fd5b90600052602060002001600091509150505481565b60066020528060005260406000206000915054906101000a900460ff1681565b60008110158015610db557506005805490508111155b610df4576040517f08c379a0000000000000000000000000000000000000000000000000000000008152600401610deb90612351565b60405180910390fd5b600060058281548110610e0a57610e09612371565b5b906000526020600020906005020190503373ffffffffffffffffffffffffffffffffffffffff168160040160009054906101000a900473ffffffffffffffffffffffffffffffffffffffff1673ffffffffffffffffffffffffffffffffffffffff1614610eac576040517f08c379a0000000000000000000000000000000000000000000000000000000008152600401610ea3906123ec565b60405180910390fd5b60018160040160146101000a81548160ff02191690836003811115610ed457610ed36117cc565b5b0217905550600060076000836001015481526020019081526020016000209050806007018260020154908060018154018082558091505060019003906000526020600020016000909190919091505560038260040160146101000a81548160ff02191690836003811115610f4b57610f4a6117cc565b5b02179055508160030160009054906101000a900473ffffffffffffffffffffffffffffffffffffffff1673ffffffffffffffffffffffffffffffffffffffff167f7e0e99a912f5373c2c21ee071faa613ebaa48aa3aa65cca918ce3915ac07d2d88484600101548560020154604051610fc69392919061240c565b60405180910390a2505050565b60085481565b600082118015610feb57506008548211155b61102a576040517f08c379a00000000000000000000000000000000000000000000000000000000081526004016110219061248f565b60405180910390fd5b60008111801561103c57506008548111155b61107b576040517f08c379a0000000000000000000000000000000000000000000000000000000008152600401611072906124fb565b60405180910390fd5b6110836114ea565b600580549050816000018181525050828160200181815250508181604001818152505033816060019073ffffffffffffffffffffffffffffffffffffffff16908173ffffffffffffffffffffffffffffffffffffffff168152505060008160a0019060038111156110f7576110f66117cc565b5b9081600381111561110b5761110a6117cc565b5b81525050600160009054906101000a900473ffffffffffffffffffffffffffffffffffffffff1673ffffffffffffffffffffffffffffffffffffffff16636352211e60018561115a9190612233565b6040518263ffffffff1660e01b81526004016111769190611775565b602060405180830381865afa158015611193573d6000803e3d6000fd5b505050506040513d601f19601f820116820180604052508101906111b79190611d09565b816080019073ffffffffffffffffffffffffffffffffffffffff16908173ffffffffffffffffffffffffffffffffffffffff1681525050600581908060018154018082558091505060019003906000526020600020906005020160009091909190915060008201518160000155602082015181600101556040820151816002015560608201518160030160006101000a81548173ffffffffffffffffffffffffffffffffffffffff021916908373ffffffffffffffffffffffffffffffffffffffff16021790555060808201518160040160006101000a81548173ffffffffffffffffffffffffffffffffffffffff021916908373ffffffffffffffffffffffffffffffffffffffff16021790555060a08201518160040160146101000a81548160ff021916908360038111156112f1576112f06117cc565b5b02179055505050600160009054906101000a900473ffffffffffffffffffffffffffffffffffffffff1673ffffffffffffffffffffffffffffffffffffffff16636352211e846040518263ffffffff1660e01b81526004016113539190611775565b602060405180830381865afa158015611370573d6000803e3d6000fd5b505050506040513d601f19601f820116820180604052508101906113949190611d09565b73ffffffffffffffffffffffffffffffffffffffff163373ffffffffffffffffffffffffffffffffffffffff167fec80c0e984adeade3ff5eec886846f3bc016b4cb8823e5b9890216a4a787204660058054905086866040516113f99392919061240c565b60405180910390a3505050565b60008054906101000a900473ffffffffffffffffffffffffffffffffffffffff1681565b600160009054906101000a900473ffffffffffffffffffffffffffffffffffffffff1681565b82805482825590600052602060002090810192821561148c579160200282015b8281111561148b578235825591602001919060010190611470565b5b509050611499919061155e565b5090565b8280548282559060005260206000209081019282156114d9579160200282015b828111156114d85782518255916020019190600101906114bd565b5b5090506114e6919061155e565b5090565b6040518060c00160405280600081526020016000815260200160008152602001600073ffffffffffffffffffffffffffffffffffffffff168152602001600073ffffffffffffffffffffffffffffffffffffffff16815260200160006003811115611558576115576117cc565b5b81525090565b5b8082111561157757600081600090555060010161155f565b5090565b600080fd5b600080fd5b6000819050919050565b61159881611585565b81146115a357600080fd5b50565b6000813590506115b58161158f565b92915050565b600080604083850312156115d2576115d161157b565b5b60006115e0858286016115a6565b92505060206115f1858286016115a6565b9150509250929050565b600073ffffffffffffffffffffffffffffffffffffffff82169050919050565b6000611626826115fb565b9050919050565b6116368161161b565b811461164157600080fd5b50565b6000813590506116538161162d565b92915050565b60006020828403121561166f5761166e61157b565b5b600061167d84828501611644565b91505092915050565b600081519050919050565b600082825260208201905092915050565b6000819050602082019050919050565b6116bb81611585565b82525050565b60006116cd83836116b2565b60208301905092915050565b6000602082019050919050565b60006116f182611686565b6116fb8185611691565b9350611706836116a2565b8060005b8381101561173757815161171e88826116c1565b9750611729836116d9565b92505060018101905061170a565b5085935050505092915050565b6000602082019050818103600083015261175e81846116e6565b905092915050565b61176f81611585565b82525050565b600060208201905061178a6000830184611766565b92915050565b6000602082840312156117a6576117a561157b565b5b60006117b4848285016115a6565b91505092915050565b6117c68161161b565b82525050565b7f4e487b7100000000000000000000000000000000000000000000000000000000600052602160045260246000fd5b6004811061180c5761180b6117cc565b5b50565b600081905061181d826117fb565b919050565b600061182d8261180f565b9050919050565b61183d81611822565b82525050565b600060c0820190506118586000830189611766565b6118656020830188611766565b6118726040830187611766565b61187f60608301866117bd565b61188c60808301856117bd565b61189960a0830184611834565b979650505050505050565b600080fd5b600080fd5b600080fd5b60008083601f8401126118c9576118c86118a4565b5b8235905067ffffffffffffffff8111156118e6576118e56118a9565b5b602083019150836001820283011115611902576119016118ae565b5b9250929050565b60008083601f84011261191f5761191e6118a4565b5b8235905067ffffffffffffffff81111561193c5761193b6118a9565b5b602083019150836020820283011115611958576119576118ae565b5b9250929050565b60008060008060006060868803121561197b5761197a61157b565b5b600086013567ffffffffffffffff81111561199957611998611580565b5b6119a5888289016118b3565b955095505060206119b8888289016115a6565b935050604086013567ffffffffffffffff8111156119d9576119d8611580565b5b6119e588828901611909565b92509250509295509295909350565b600081519050919050565b600082825260208201905092915050565b60005b83811015611a2e578082015181840152602081019050611a13565b60008484015250505050565b6000601f19601f8301169050919050565b6000611a56826119f4565b611a6081856119ff565b9350611a70818560208601611a10565b611a7981611a3a565b840191505092915050565b600060a082019050611a996000830188611766565b611aa66020830187611766565b611ab36040830186611766565b8181036060830152611ac58185611a4b565b9050611ad460808301846117bd565b9695505050505050565b6000611ae9826115fb565b9050919050565b611af981611ade565b8114611b0457600080fd5b50565b600081359050611b1681611af0565b92915050565b60008060408385031215611b3357611b3261157b565b5b6000611b41858286016115a6565b9250506020611b5285828601611b07565b9150509250929050565b60008060408385031215611b7357611b7261157b565b5b6000611b8185828601611644565b9250506020611b92858286016115a6565b9150509250929050565b60008115159050919050565b611bb181611b9c565b82525050565b6000602082019050611bcc6000830184611ba8565b92915050565b6000819050919050565b6000611bf7611bf2611bed846115fb565b611bd2565b6115fb565b9050919050565b6000611c0982611bdc565b9050919050565b6000611c1b82611bfe565b9050919050565b611c2b81611c10565b82525050565b6000602082019050611c466000830184611c22565b92915050565b6000611c5782611bfe565b9050919050565b611c6781611c4c565b82525050565b6000602082019050611c826000830184611c5e565b92915050565b7f6e6f7420612076616c6964206964000000000000000000000000000000000000600082015250565b6000611cbe600e836119ff565b9150611cc982611c88565b602082019050919050565b60006020820190508181036000830152611ced81611cb1565b9050919050565b600081519050611d038161162d565b92915050565b600060208284031215611d1f57611d1e61157b565b5b6000611d2d84828501611cf4565b91505092915050565b7f6e6f7420612076616c69642076616c696461746f720000000000000000000000600082015250565b6000611d6c6015836119ff565b9150611d7782611d36565b602082019050919050565b60006020820190508181036000830152611d9b81611d5f565b9050919050565b7f616c726561647920766572696669656400000000000000000000000000000000600082015250565b6000611dd86010836119ff565b9150611de382611da2565b602082019050919050565b60006020820190508181036000830152611e0781611dcb565b9050919050565b7f4e487b7100000000000000000000000000000000000000000000000000000000600052601160045260246000fd5b6000611e4882611585565b91507fffffffffffffffffffffffffffffffffffffffffffffffffffffffffffffffff8203611e7a57611e79611e0e565b5b600182019050919050565b6000611e9082611585565b9150611e9b83611585565b9250828201905080821115611eb357611eb2611e0e565b5b92915050565b600082905092915050565b7f4e487b7100000000000000000000000000000000000000000000000000000000600052604160045260246000fd5b7f4e487b7100000000000000000000000000000000000000000000000000000000600052602260045260246000fd5b60006002820490506001821680611f3a57607f821691505b602082108103611f4d57611f4c611ef3565b5b50919050565b60008190508160005260206000209050919050565b60006020601f8301049050919050565b600082821b905092915050565b600060088302611fb57fffffffffffffffffffffffffffffffffffffffffffffffffffffffffffffffff82611f78565b611fbf8683611f78565b95508019841693508086168417925050509392505050565b6000611ff2611fed611fe884611585565b611bd2565b611585565b9050919050565b6000819050919050565b61200c83611fd7565b61202061201882611ff9565b848454611f85565b825550505050565b600090565b612035612028565b612040818484612003565b505050565b5b818110156120645761205960008261202d565b600181019050612046565b5050565b601f8211156120a95761207a81611f53565b61208384611f68565b81016020851015612092578190505b6120a661209e85611f68565b830182612045565b50505b505050565b600082821c905092915050565b60006120cc600019846008026120ae565b1980831691505092915050565b60006120e583836120bb565b9150826002028217905092915050565b6120ff8383611eb9565b67ffffffffffffffff81111561211857612117611ec4565b5b6121228254611f22565b61212d828285612068565b6000601f83116001811461215c576000841561214a578287013590505b61215485826120d9565b8655506121bc565b601f19841661216a86611f53565b60005b828110156121925784890135825560018201915060208501945060208101905061216d565b868310156121af57848901356121ab601f8916826120bb565b8355505b6001600288020188555050505b50505050505050565b82818337600083830152505050565b60006121e083856119ff565b93506121ed8385846121c5565b6121f683611a3a565b840190509392505050565b600060408201905061221660008301866117bd565b81810360208301526122298184866121d4565b9050949350505050565b600061223e82611585565b915061224983611585565b925082820390508181111561226157612260611e0e565b5b92915050565b600060408201905061227c6000830186611766565b818103602083015261228f8184866121d4565b9050949350505050565b7f73656e64696e6720616e206e6567617469766520616d6f756e74000000000000600082015250565b60006122cf601a836119ff565b91506122da82612299565b602082019050919050565b600060208201905081810360008301526122fe816122c2565b9050919050565b7f696e76616c696420726571756573742049440000000000000000000000000000600082015250565b600061233b6012836119ff565b915061234682612305565b602082019050919050565b6000602082019050818103600083015261236a8161232e565b9050919050565b7f4e487b7100000000000000000000000000000000000000000000000000000000600052603260045260246000fd5b7f6f6e6c79206f776e65722063616e20617070726f766500000000000000000000600082015250565b60006123d66016836119ff565b91506123e1826123a0565b602082019050919050565b60006020820190508181036000830152612405816123c9565b9050919050565b60006060820190506124216000830186611766565b61242e6020830185611766565b61243b6040830184611766565b949350505050565b7f6e6f7420612076616c6964206f726967696e616c206964000000000000000000600082015250565b60006124796017836119ff565b915061248482612443565b602082019050919050565b600060208201905081810360008301526124a88161246c565b9050919050565b7f6e6f7420612076616c6964206e65772069640000000000000000000000000000600082015250565b60006124e56012836119ff565b91506124f0826124af565b602082019050919050565b60006020820190508181036000830152612514816124d8565b905091905056fea264697066735822122012990e07637fd22708b3b12f0a7ab85fc7cfaf81822097484f33c19d8f57ab3064736f6c63430008120033",
  "linkReferences": {},
  "deployedLinkReferences": {}
}